{
  "contractName": "TodoList",
  "abi": [
    {
      "inputs": [],
      "stateMutability": "nonpayable",
      "type": "constructor"
    },
    {
      "inputs": [],
      "name": "taskCount",
      "outputs": [
        {
          "internalType": "uint256",
          "name": "",
          "type": "uint256"
        }
      ],
      "stateMutability": "view",
      "type": "function",
      "constant": true
    },
    {
      "inputs": [
        {
          "internalType": "uint256",
          "name": "",
          "type": "uint256"
        }
      ],
      "name": "tasks",
      "outputs": [
        {
          "internalType": "uint256",
          "name": "id",
          "type": "uint256"
        },
        {
          "internalType": "string",
          "name": "content",
          "type": "string"
        },
        {
          "internalType": "bool",
          "name": "completed",
          "type": "bool"
        }
      ],
      "stateMutability": "view",
      "type": "function",
      "constant": true
    },
    {
      "inputs": [
        {
          "internalType": "string",
          "name": "_content",
          "type": "string"
        }
      ],
      "name": "createTask",
      "outputs": [],
      "stateMutability": "nonpayable",
      "type": "function"
    },
    {
      "inputs": [
        {
          "internalType": "uint256",
          "name": "_id",
          "type": "uint256"
        }
      ],
      "name": "updateStatus",
      "outputs": [],
      "stateMutability": "nonpayable",
      "type": "function"
    },
    {
      "inputs": [
        {
          "internalType": "uint256",
          "name": "_id",
          "type": "uint256"
        }
      ],
      "name": "deletetask",
      "outputs": [],
      "stateMutability": "nonpayable",
      "type": "function"
    }
  ],
  "bytecode": "0x60806040525f805534801562000013575f80fd5b506200005a6040518060400160405280600981526020017f4e6577205461736b7300000000000000000000000000000000000000000000008152506200006060201b60201c565b620004ae565b5f80815480929190620000739062000123565b919050555060405180606001604052805f5481526020018281526020015f151581525060015f805481526020019081526020015f205f820151815f01556020820151816001019081620000c79190620003ca565b506040820151816002015f6101000a81548160ff02191690831515021790555090505050565b7f4e487b71000000000000000000000000000000000000000000000000000000005f52601160045260245ffd5b5f819050919050565b5f6200012f826200011a565b91507fffffffffffffffffffffffffffffffffffffffffffffffffffffffffffffffff8203620001645762000163620000ed565b5b600182019050919050565b5f81519050919050565b7f4e487b71000000000000000000000000000000000000000000000000000000005f52604160045260245ffd5b7f4e487b71000000000000000000000000000000000000000000000000000000005f52602260045260245ffd5b5f6002820490506001821680620001eb57607f821691505b602082108103620002015762000200620001a6565b5b50919050565b5f819050815f5260205f209050919050565b5f6020601f8301049050919050565b5f82821b905092915050565b5f60088302620002657fffffffffffffffffffffffffffffffffffffffffffffffffffffffffffffffff8262000228565b62000271868362000228565b95508019841693508086168417925050509392505050565b5f819050919050565b5f620002b2620002ac620002a6846200011a565b62000289565b6200011a565b9050919050565b5f819050919050565b620002cd8362000292565b620002e5620002dc82620002b9565b84845462000234565b825550505050565b5f90565b620002fb620002ed565b62000308818484620002c2565b505050565b5b818110156200032f57620003235f82620002f1565b6001810190506200030e565b5050565b601f8211156200037e57620003488162000207565b620003538462000219565b8101602085101562000363578190505b6200037b620003728562000219565b8301826200030d565b50505b505050565b5f82821c905092915050565b5f620003a05f198460080262000383565b1980831691505092915050565b5f620003ba83836200038f565b9150826002028217905092915050565b620003d5826200016f565b67ffffffffffffffff811115620003f157620003f062000179565b5b620003fd8254620001d3565b6200040a82828562000333565b5f60209050601f83116001811462000440575f84156200042b578287015190505b620004378582620003ad565b865550620004a6565b601f198416620004508662000207565b5f5b82811015620004795784890151825560018201915060208501945060208101905062000452565b8683101562000499578489015162000495601f8916826200038f565b8355505b6001600288020188555050505b505050505050565b61098680620004bc5f395ff3fe608060405234801561000f575f80fd5b5060043610610055575f3560e01c8063111002aa146100595780631f418aaa146100755780638d97767214610091578063b6cb58a5146100c3578063d61e7201146100e1575b5f80fd5b610073600480360381019061006e9190610476565b6100fd565b005b61008f600480360381019061008a91906104f0565b610186565b005b6100ab60048036038101906100a691906104f0565b6101c5565b6040516100ba939291906105be565b60405180910390f35b6100cb61027d565b6040516100d891906105fa565b60405180910390f35b6100fb60048036038101906100f691906104f0565b610282565b005b5f8081548092919061010e90610640565b919050555060405180606001604052805f5481526020018281526020015f151581525060015f805481526020019081526020015f205f820151815f015560208201518160010190816101609190610881565b506040820151816002015f6101000a81548160ff02191690831515021790555090505050565b60015f8281526020019081526020015f205f8082015f9055600182015f6101ad91906102d1565b600282015f6101000a81549060ff0219169055505050565b6001602052805f5260405f205f91509050805f0154908060010180546101ea906106b4565b80601f0160208091040260200160405190810160405280929190818152602001828054610216906106b4565b80156102615780601f1061023857610100808354040283529160200191610261565b820191905f5260205f20905b81548152906001019060200180831161024457829003601f168201915b505050505090806002015f9054906101000a900460ff16905083565b5f5481565b60015f8281526020019081526020015f206002015f9054906101000a900460ff161560015f8381526020019081526020015f206002015f6101000a81548160ff02191690831515021790555050565b5080546102dd906106b4565b5f825580601f106102ee575061030b565b601f0160209004905f5260205f209081019061030a919061030e565b5b50565b5b80821115610325575f815f90555060010161030f565b5090565b5f604051905090565b5f80fd5b5f80fd5b5f80fd5b5f80fd5b5f601f19601f8301169050919050565b7f4e487b71000000000000000000000000000000000000000000000000000000005f52604160045260245ffd5b61038882610342565b810181811067ffffffffffffffff821117156103a7576103a6610352565b5b80604052505050565b5f6103b9610329565b90506103c5828261037f565b919050565b5f67ffffffffffffffff8211156103e4576103e3610352565b5b6103ed82610342565b9050602081019050919050565b828183375f83830152505050565b5f61041a610415846103ca565b6103b0565b9050828152602081018484840111156104365761043561033e565b5b6104418482856103fa565b509392505050565b5f82601f83011261045d5761045c61033a565b5b813561046d848260208601610408565b91505092915050565b5f6020828403121561048b5761048a610332565b5b5f82013567ffffffffffffffff8111156104a8576104a7610336565b5b6104b484828501610449565b91505092915050565b5f819050919050565b6104cf816104bd565b81146104d9575f80fd5b50565b5f813590506104ea816104c6565b92915050565b5f6020828403121561050557610504610332565b5b5f610512848285016104dc565b91505092915050565b610524816104bd565b82525050565b5f81519050919050565b5f82825260208201905092915050565b5f5b83811015610561578082015181840152602081019050610546565b5f8484015250505050565b5f6105768261052a565b6105808185610534565b9350610590818560208601610544565b61059981610342565b840191505092915050565b5f8115159050919050565b6105b8816105a4565b82525050565b5f6060820190506105d15f83018661051b565b81810360208301526105e3818561056c565b90506105f260408301846105af565b949350505050565b5f60208201905061060d5f83018461051b565b92915050565b7f4e487b71000000000000000000000000000000000000000000000000000000005f52601160045260245ffd5b5f61064a826104bd565b91507fffffffffffffffffffffffffffffffffffffffffffffffffffffffffffffffff820361067c5761067b610613565b5b600182019050919050565b7f4e487b71000000000000000000000000000000000000000000000000000000005f52602260045260245ffd5b5f60028204905060018216806106cb57607f821691505b6020821081036106de576106dd610687565b5b50919050565b5f819050815f5260205f209050919050565b5f6020601f8301049050919050565b5f82821b905092915050565b5f600883026107407fffffffffffffffffffffffffffffffffffffffffffffffffffffffffffffffff82610705565b61074a8683610705565b95508019841693508086168417925050509392505050565b5f819050919050565b5f61078561078061077b846104bd565b610762565b6104bd565b9050919050565b5f819050919050565b61079e8361076b565b6107b26107aa8261078c565b848454610711565b825550505050565b5f90565b6107c66107ba565b6107d1818484610795565b505050565b5b818110156107f4576107e95f826107be565b6001810190506107d7565b5050565b601f8211156108395761080a816106e4565b610813846106f6565b81016020851015610822578190505b61083661082e856106f6565b8301826107d6565b50505b505050565b5f82821c905092915050565b5f6108595f198460080261083e565b1980831691505092915050565b5f610871838361084a565b9150826002028217905092915050565b61088a8261052a565b67ffffffffffffffff8111156108a3576108a2610352565b5b6108ad82546106b4565b6108b88282856107f8565b5f60209050601f8311600181146108e9575f84156108d7578287015190505b6108e18582610866565b865550610948565b601f1984166108f7866106e4565b5f5b8281101561091e578489015182556001820191506020850194506020810190506108f9565b8683101561093b5784890151610937601f89168261084a565b8355505b6001600288020188555050505b50505050505056fea26469706673582212201f5c3242b9634c6848f35fe6c7f36818d14dd3f17e212cde770a6f44d053becc64736f6c63430008150033",
  "immutableReferences": {},
  "source": "pragma solidity ^0.8.21;\n\ncontract TodoList{\n\n    uint public taskCount = 0;\n\n\n    struct Task {\n        uint id;\n        string content;\n        bool completed;\n        \n    }\n    // uint bcs of the id\n    mapping(uint => Task) public tasks;\n\n    constructor() public {\n        createTask(\"New Tasks\");\n\n    }\n\n    function createTask(string memory _content) public {\n        taskCount++;\n        tasks[taskCount] = Task(taskCount,_content,false);\n\n    }\n    \n    function updateStatus(uint _id) public{\n        tasks[_id].completed = !tasks[_id].completed;\n    }\n\n    function deletetask(uint _id) public {\n        delete(tasks[_id]);\n    }\n\n}\n",
  "sourcePath": "/home/nugroho/Documents/proj/w3/contracts/TodoList.sol",
  "compiler": {
    "name": "solc",
    "version": "0.8.21+commit.d9974bed.Emscripten.clang"
  },
  "schemaVersion": "3.4.16",
  "updatedAt": "2023-10-08T06:56:01.213Z",
  "networkType": "ethereum",
  "devdoc": {
    "kind": "dev",
    "methods": {},
    "version": 1
  },
  "userdoc": {
    "kind": "user",
    "methods": {},
    "version": 1
  }
}